{"contracts/PerformanceMonitor.sol":{"PerformanceMonitor":{"abi":[{"inputs":[],"stateMutability":"nonpayable","type":"constructor"},{"anonymous":false,"inputs":[{"indexed":true,"internalType":"uint256","name":"id","type":"uint256"},{"indexed":true,"internalType":"address","name":"recorder","type":"address"},{"indexed":false,"internalType":"string","name":"metricName","type":"string"},{"indexed":false,"internalType":"uint256","name":"value","type":"uint256"},{"indexed":false,"internalType":"uint256","name":"timestamp","type":"uint256"}],"name":"MetricRecorded","type":"event"},{"anonymous":false,"inputs":[{"indexed":true,"internalType":"address","name":"recorder","type":"address"}],"name":"RecorderAuthorized","type":"event"},{"anonymous":false,"inputs":[{"indexed":true,"internalType":"address","name":"recorder","type":"address"}],"name":"RecorderRevoked","type":"event"},{"inputs":[{"internalType":"address","name":"recorder","type":"address"}],"name":"authorizeRecorder","outputs":[],"stateMutability":"nonpayable","type":"function"},{"inputs":[{"internalType":"address","name":"","type":"address"}],"name":"authorizedRecorders","outputs":[{"internalType":"bool","name":"","type":"bool"}],"stateMutability":"view","type":"function"},{"inputs":[],"name":"getAverageValue","outputs":[{"internalType":"uint256","name":"","type":"uint256"}],"stateMutability":"view","type":"function"},{"inputs":[{"internalType":"uint256","name":"count","type":"uint256"}],"name":"getLatestMetrics","outputs":[{"components":[{"internalType":"uint256","name":"timestamp","type":"uint256"},{"internalType":"string","name":"metricName","type":"string"},{"internalType":"uint256","name":"value","type":"uint256"},{"internalType":"string","name":"unit","type":"string"},{"internalType":"address","name":"recorder","type":"address"}],"internalType":"struct PerformanceMonitor.Metric[]","name":"","type":"tuple[]"}],"stateMutability":"view","type":"function"},{"inputs":[{"internalType":"uint256","name":"id","type":"uint256"}],"name":"getMetric","outputs":[{"internalType":"uint256","name":"timestamp","type":"uint256"},{"internalType":"string","name":"metricName","type":"string"},{"internalType":"uint256","name":"value","type":"uint256"},{"internalType":"string","name":"unit","type":"string"},{"internalType":"address","name":"recorder","type":"address"}],"stateMutability":"view","type":"function"},{"inputs":[],"name":"getMetricsCount","outputs":[{"internalType":"uint256","name":"","type":"uint256"}],"stateMutability":"view","type":"function"},{"inputs":[{"internalType":"address","name":"user","type":"address"}],"name":"getUserMetrics","outputs":[{"internalType":"uint256[]","name":"","type":"uint256[]"}],"stateMutability":"view","type":"function"},{"inputs":[{"internalType":"address","name":"recorder","type":"address"}],"name":"isAuthorized","outputs":[{"internalType":"bool","name":"","type":"bool"}],"stateMutability":"view","type":"function"},{"inputs":[{"internalType":"uint256","name":"","type":"uint256"}],"name":"metrics","outputs":[{"internalType":"uint256","name":"timestamp","type":"uint256"},{"internalType":"string","name":"metricName","type":"string"},{"internalType":"uint256","name":"value","type":"uint256"},{"internalType":"string","name":"unit","type":"string"},{"internalType":"address","name":"recorder","type":"address"}],"stateMutability":"view","type":"function"},{"inputs":[],"name":"owner","outputs":[{"internalType":"address","name":"","type":"address"}],"stateMutability":"view","type":"function"},{"inputs":[{"internalType":"string","name":"metricName","type":"string"},{"internalType":"uint256","name":"value","type":"uint256"},{"internalType":"string","name":"unit","type":"string"}],"name":"recordMetric","outputs":[],"stateMutability":"nonpayable","type":"function"},{"inputs":[{"internalType":"address","name":"recorder","type":"address"}],"name":"revokeRecorder","outputs":[],"stateMutability":"nonpayable","type":"function"},{"inputs":[{"internalType":"address","name":"","type":"address"},{"internalType":"uint256","name":"","type":"uint256"}],"name":"userMetrics","outputs":[{"internalType":"uint256","name":"","type":"uint256"}],"stateMutability":"view","type":"function"}],"evm":{"bytecode":{"linkReferences":{},"object":"608060405234801561000f575f80fd5b50600380546001600160a01b031916339081179091555f908152600260205260409020805460ff1916600117905561135a8061004a5f395ff3fe608060405234801561000f575f80fd5b50600436106100da575f3560e01c8063ac9a5e9a11610088578063c5f5701511610063578063c5f57015146101e8578063cf4a75be14610208578063e3d1360a1461020f578063fe9fbb8014610217575f80fd5b8063ac9a5e9a14610193578063af23e87c146101c2578063b84bb860146101d5575f80fd5b80636d9aac62116100b85780636d9aac6214610140578063895538eb146101535780638da5cb5b14610173575f80fd5b806326fc0967146100de578063582bd8f1146101075780636ba49fa01461012b575b5f80fd5b6100f16100ec366004610b88565b610242565b6040516100fe9190610d08565b60405180910390f35b61011a610115366004610b88565b61049f565b6040516100fe959493929190610d19565b61013e610139366004610d87565b61066c565b005b61011a61014e366004610b88565b6106e1565b610166610161366004610da4565b610835565b6040516100fe9190610dda565b600354610186906001600160a01b031681565b6040516100fe9190610de8565b6101b56101a1366004610d87565b60026020525f908152604090205460ff1681565b6040516100fe9190610dfe565b61013e6101d0366004610d87565b610860565b61013e6101e3366004610ef4565b610900565b6101fb6101f6366004610d87565b610a9b565b6040516100fe9190610fc8565b5f54610166565b610166610b04565b6101b5610225366004610d87565b6001600160a01b03165f9081526002602052604090205460ff1690565b5f80546060918184116102555783610257565b815b90505f8167ffffffffffffffff81111561027357610273610e0c565b6040519080825280602002602001820160405280156102dc57816020015b6102c96040518060a001604052805f8152602001606081526020015f8152602001606081526020015f6001600160a01b031681525090565b8152602001906001900390816102915790505b5090505f5b82811015610496575f816102f6600187610fed565b6103009190610fed565b8154811061031057610310611000565b905f5260205f2090600502016040518060a00160405290815f820154815260200160018201805461034090611028565b80601f016020809104026020016040519081016040528092919081815260200182805461036c90611028565b80156103b75780601f1061038e576101008083540402835291602001916103b7565b820191905f5260205f20905b81548152906001019060200180831161039a57829003601f168201915b50505050508152602001600282015481526020016003820180546103da90611028565b80601f016020809104026020016040519081016040528092919081815260200182805461040690611028565b80156104515780601f1061042857610100808354040283529160200191610451565b820191905f5260205f20905b81548152906001019060200180831161043457829003601f168201915b5050509183525050600491909101546001600160a01b0316602090910152825183908390811061048357610483611000565b60209081029190910101526001016102e1565b50949350505050565b5f60605f60605f808054905086106104d25760405162461bcd60e51b81526004016104c990611086565b60405180910390fd5b5f8087815481106104e5576104e5611000565b905f5260205f2090600502016040518060a00160405290815f820154815260200160018201805461051590611028565b80601f016020809104026020016040519081016040528092919081815260200182805461054190611028565b801561058c5780601f106105635761010080835404028352916020019161058c565b820191905f5260205f20905b81548152906001019060200180831161056f57829003601f168201915b50505050508152602001600282015481526020016003820180546105af90611028565b80601f01602080910402602001604051908101604052809291908181526020018280546105db90611028565b80156106265780601f106105fd57610100808354040283529160200191610626565b820191905f5260205f20905b81548152906001019060200180831161060957829003601f168201915b5050509183525050600491909101546001600160a01b031660209182015281519082015160408301516060840151608090940151929b919a509850919650945092505050565b6003546001600160a01b031633146106965760405162461bcd60e51b81526004016104c9906110c8565b6001600160a01b0381165f81815260026020526040808220805460ff19166001179055517f1593ddc0d82cbbad9431bba77edb1c641cddb2ae930b924e6316f525e3a0c96d9190a250565b5f81815481106106ef575f80fd5b5f918252602090912060059091020180546001820180549193509061071390611028565b80601f016020809104026020016040519081016040528092919081815260200182805461073f90611028565b801561078a5780601f106107615761010080835404028352916020019161078a565b820191905f5260205f20905b81548152906001019060200180831161076d57829003601f168201915b5050505050908060020154908060030180546107a590611028565b80601f01602080910402602001604051908101604052809291908181526020018280546107d190611028565b801561081c5780601f106107f35761010080835404028352916020019161081c565b820191905f5260205f20905b8154815290600101906020018083116107ff57829003601f168201915b505050600490930154919250506001600160a01b031685565b6001602052815f5260405f20818154811061084e575f80fd5b905f5260205f20015f91509150505481565b6003546001600160a01b0316331461088a5760405162461bcd60e51b81526004016104c9906110c8565b6003546001600160a01b03908116908216036108b85760405162461bcd60e51b81526004016104c99061110a565b6001600160a01b0381165f81815260026020526040808220805460ff19169055517fbeab9f6afe6eb7afc2066c798cea7d48fcf134893b3cf4c5bc030b244864a8739190a250565b335f9081526002602052604090205460ff168061092757506003546001600160a01b031633145b6109435760405162461bcd60e51b81526004016104c99061114a565b6040805160a08101825242815260208101858152918101849052606081018390523360808201525f80546001810182559080528151600582027f290decd9548b62a8d60345a988386fc84ba6bc95484008f6362f93160ef3e563810191825593519293919284927f290decd9548b62a8d60345a988386fc84ba6bc95484008f6362f93160ef3e56401906109d790826111f9565b5060408201516002820155606082015160038201906109f690826111f9565b5060809190910151600490910180547fffffffffffffffffffffffff0000000000000000000000000000000000000000166001600160a01b03909216919091179055335f8181526001602081815260408084208054938401815584529220018390555182907f60b110fbf7cdc422bbf651630cc3878d8fa6745f7772a9d437ddf05b19d337f390610a8c908990899042906112b5565b60405180910390a35050505050565b6001600160a01b0381165f90815260016020908152604091829020805483518184028101840190945280845260609392830182828015610af857602002820191905f5260205f20905b815481526020019060010190808311610ae4575b50505050509050919050565b5f80548103610b1257505f90565b5f805b5f54811015610b55575f8181548110610b3057610b30611000565b905f5260205f2090600502016002015482610b4b91906112ea565b9150600101610b15565b505f54610b629082611311565b91505090565b805b8114610b74575f80fd5b50565b8035610b8281610b68565b92915050565b5f60208284031215610b9b57610b9b5f80fd5b610ba58383610b77565b9392505050565b805b82525050565b5f5b83811015610bce578181015183820152602001610bb6565b50505f910152565b5f610bdf825190565b808452602084019350610bf6818560208601610bb4565b601f01601f19169290920192915050565b5f6001600160a01b038216610b82565b610bae81610c07565b80515f9060a0840190610c338582610bac565b5060208301518482036020860152610c4b8282610bd6565b9150506040830151610c606040860182610bac565b5060608301518482036060860152610c788282610bd6565b9150506080830151610c8d6080860182610c17565b509392505050565b5f610ba58383610c20565b60200190565b5f610caf825190565b80845260208401935083602082028501610cc98560200190565b5f5b84811015610cfc5783830388528151610ce48482610c95565b93505060208201602098909801979150600101610ccb565b50909695505050505050565b60208082528101610ba58184610ca6565b60a08101610d278288610bac565b8181036020830152610d398187610bd6565b9050610d486040830186610bac565b8181036060830152610d5a8185610bd6565b9050610d696080830184610c17565b9695505050505050565b610b6a81610c07565b8035610b8281610d73565b5f60208284031215610d9a57610d9a5f80fd5b610ba58383610d7c565b5f8060408385031215610db857610db85f80fd5b610dc28484610d7c565b9150610dd18460208501610b77565b90509250929050565b60208101610b828284610bac565b60208101610b828284610c17565b801515610bae565b60208101610b828284610df6565b634e487b7160e01b5f52604160045260245ffd5b601f19601f830116810181811067ffffffffffffffff82111715610e4657610e46610e0c565b6040525050565b5f610e5760405190565b9050610e638282610e20565b919050565b5f67ffffffffffffffff821115610e8157610e81610e0c565b601f19601f83011660200192915050565b82818337505f910152565b5f610eaf610eaa84610e68565b610e4d565b9050828152838383011115610ec557610ec55f80fd5b610ba5836020830184610e92565b5f82601f830112610ee557610ee55f80fd5b610ba583833560208501610e9d565b5f805f60608486031215610f0957610f095f80fd5b833567ffffffffffffffff811115610f2257610f225f80fd5b610f2e86828701610ed3565b935050610f3e8560208601610b77565b9150604084013567ffffffffffffffff811115610f5c57610f5c5f80fd5b610f6886828701610ed3565b9150509250925092565b610f7c8282610bac565b5060200190565b5f610f8c825190565b80845260209384019383015f5b82811015610fbe578151610fad8782610f72565b965050602082019150600101610f99565b5093949350505050565b60208082528101610ba58184610f83565b634e487b7160e01b5f52601160045260245ffd5b81810381811115610b8257610b82610fd9565b634e487b7160e01b5f52603260045260245ffd5b634e487b7160e01b5f52602260045260245ffd5b60028104600182168061103c57607f821691505b60208210810361104e5761104e611014565b50919050565b60158152602081017f4d657472696320646f6573206e6f74206578697374000000000000000000000081529050610ca0565b60208082528101610b8281611054565b600e8152602081017f4e6f7420617574686f72697a656400000000000000000000000000000000000081529050610ca0565b60208082528101610b8281611096565b60138152602081017f43616e6e6f74207265766f6b65206f776e65720000000000000000000000000081529050610ca0565b60208082528101610b82816110d8565b60208082527f4e6f7420617574686f72697a656420746f207265636f7264206d6574726963739101908152610ca0565b60208082528101610b828161111a565b5f610b826111658381565b90565b6111718361115a565b81545f1960089490940293841b1916921b91909117905550565b5f611197818484611168565b505050565b818110156111b6576111ae5f8261118b565b60010161119c565b5050565b601f821115611197575f818152602090206020601f850104810160208510156111e05750805b6111f26020601f86010483018261119c565b5050505050565b815167ffffffffffffffff81111561121357611213610e0c565b61121d8254611028565b6112288282856111ba565b506020601f82116001811461125b575f83156112445750848201515b5f19600885021c19811660028502178555506111f2565b5f84815260208120601f198516915b8281101561128a578785015182556020948501946001909201910161126a565b50848210156112a657838701515f19601f87166008021c191681555b50505050600202600101905550565b606080825281016112c68186610bd6565b90506112d56020830185610bac565b6112e26040830184610bac565b949350505050565b80820180821115610b8257610b82610fd9565b634e487b7160e01b5f52601260045260245ffd5b5f8261131f5761131f6112fd565b50049056fea2646970667358221220a53abbbcff9e7e8497cc2150b53bc948c3db117b0d8047c6a4138547638a3e8664736f6c63430008180033","opcodes":"PUSH1 0x80 PUSH1 0x40 MSTORE CALLVALUE DUP1 ISZERO PUSH2 0xF JUMPI PUSH0 DUP1 REVERT JUMPDEST POP PUSH1 0x3 DUP1 SLOAD PUSH1 0x1 PUSH1 0x1 PUSH1 0xA0 SHL SUB NOT AND CALLER SWAP1 DUP2 OR SWAP1 SWAP2 SSTORE PUSH0 SWAP1 DUP2 MSTORE PUSH1 0x2 PUSH1 0x20 MSTORE PUSH1 0x40 SWAP1 KECCAK256 DUP1 SLOAD PUSH1 0xFF NOT AND PUSH1 0x1 OR SWAP1 SSTORE PUSH2 0x135A DUP1 PUSH2 0x4A PUSH0 CODECOPY PUSH0 RETURN INVALID PUSH1 0x80 PUSH1 0x40 MSTORE CALLVALUE DUP1 ISZERO PUSH2 0xF JUMPI PUSH0 DUP1 REVERT JUMPDEST POP PUSH1 0x4 CALLDATASIZE LT PUSH2 0xDA JUMPI PUSH0 CALLDATALOAD PUSH1 0xE0 SHR DUP1 PUSH4 0xAC9A5E9A GT PUSH2 0x88 JUMPI DUP1 PUSH4 0xC5F57015 GT PUSH2 0x63 JUMPI DUP1 PUSH4 0xC5F57015 EQ PUSH2 0x1E8 JUMPI DUP1 PUSH4 0xCF4A75BE EQ PUSH2 0x208 JUMPI DUP1 PUSH4 0xE3D1360A EQ PUSH2 0x20F JUMPI DUP1 PUSH4 0xFE9FBB80 EQ PUSH2 0x217 JUMPI PUSH0 DUP1 REVERT JUMPDEST DUP1 PUSH4 0xAC9A5E9A EQ PUSH2 0x193 JUMPI DUP1 PUSH4 0xAF23E87C EQ PUSH2 0x1C2 JUMPI DUP1 PUSH4 0xB84BB860 EQ PUSH2 0x1D5 JUMPI PUSH0 DUP1 REVERT JUMPDEST DUP1 PUSH4 0x6D9AAC62 GT PUSH2 0xB8 JUMPI DUP1 PUSH4 0x6D9AAC62 EQ PUSH2 0x140 JUMPI DUP1 PUSH4 0x895538EB EQ PUSH2 0x153 JUMPI DUP1 PUSH4 0x8DA5CB5B EQ PUSH2 0x173 JUMPI PUSH0 DUP1 REVERT JUMPDEST DUP1 PUSH4 0x26FC0967 EQ PUSH2 0xDE JUMPI DUP1 PUSH4 0x582BD8F1 EQ PUSH2 0x107 JUMPI DUP1 PUSH4 0x6BA49FA0 EQ PUSH2 0x12B JUMPI JUMPDEST PUSH0 DUP1 REVERT JUMPDEST PUSH2 0xF1 PUSH2 0xEC CALLDATASIZE PUSH1 0x4 PUSH2 0xB88 JUMP JUMPDEST PUSH2 0x242 JUMP JUMPDEST PUSH1 0x40 MLOAD PUSH2 0xFE SWAP2 SWAP1 PUSH2 0xD08 JUMP JUMPDEST PUSH1 0x40 MLOAD DUP1 SWAP2 SUB SWAP1 RETURN JUMPDEST PUSH2 0x11A PUSH2 0x115 CALLDATASIZE PUSH1 0x4 PUSH2 0xB88 JUMP JUMPDEST PUSH2 0x49F JUMP JUMPDEST PUSH1 0x40 MLOAD PUSH2 0xFE SWAP6 SWAP5 SWAP4 SWAP3 SWAP2 SWAP1 PUSH2 0xD19 JUMP JUMPDEST PUSH2 0x13E PUSH2 0x139 CALLDATASIZE PUSH1 0x4 PUSH2 0xD87 JUMP JUMPDEST PUSH2 0x66C JUMP JUMPDEST STOP JUMPDEST PUSH2 0x11A PUSH2 0x14E CALLDATASIZE PUSH1 0x4 PUSH2 0xB88 JUMP JUMPDEST PUSH2 0x6E1 JUMP JUMPDEST PUSH2 0x166 PUSH2 0x161 CALLDATASIZE PUSH1 0x4 PUSH2 0xDA4 JUMP JUMPDEST PUSH2 0x835 JUMP JUMPDEST PUSH1 0x40 MLOAD PUSH2 0xFE SWAP2 SWAP1 PUSH2 0xDDA JUMP JUMPDEST PUSH1 0x3 SLOAD PUSH2 0x186 SWAP1 PUSH1 0x1 PUSH1 0x1 PUSH1 0xA0 SHL SUB AND DUP2 JUMP JUMPDEST PUSH1 0x40 MLOAD PUSH2 0xFE SWAP2 SWAP1 PUSH2 0xDE8 JUMP JUMPDEST PUSH2 0x1B5 PUSH2 0x1A1 CALLDATASIZE PUSH1 0x4 PUSH2 0xD87 JUMP JUMPDEST PUSH1 0x2 PUSH1 0x20 MSTORE PUSH0 SWAP1 DUP2 MSTORE PUSH1 0x40 SWAP1 KECCAK256 SLOAD PUSH1 0xFF AND DUP2 JUMP JUMPDEST PUSH1 0x40 MLOAD PUSH2 0xFE SWAP2 SWAP1 PUSH2 0xDFE JUMP JUMPDEST PUSH2 0x13E PUSH2 0x1D0 CALLDATASIZE PUSH1 0x4 PUSH2 0xD87 JUMP JUMPDEST PUSH2 0x860 JUMP JUMPDEST PUSH2 0x13E PUSH2 0x1E3 CALLDATASIZE PUSH1 0x4 PUSH2 0xEF4 JUMP JUMPDEST PUSH2 0x900 JUMP JUMPDEST PUSH2 0x1FB PUSH2 0x1F6 CALLDATASIZE PUSH1 0x4 PUSH2 0xD87 JUMP JUMPDEST PUSH2 0xA9B JUMP JUMPDEST PUSH1 0x40 MLOAD PUSH2 0xFE SWAP2 SWAP1 PUSH2 0xFC8 JUMP JUMPDEST PUSH0 SLOAD PUSH2 0x166 JUMP JUMPDEST PUSH2 0x166 PUSH2 0xB04 JUMP JUMPDEST PUSH2 0x1B5 PUSH2 0x225 CALLDATASIZE PUSH1 0x4 PUSH2 0xD87 JUMP JUMPDEST PUSH1 0x1 PUSH1 0x1 PUSH1 0xA0 SHL SUB AND PUSH0 SWAP1 DUP2 MSTORE PUSH1 0x2 PUSH1 0x20 MSTORE PUSH1 0x40 SWAP1 KECCAK256 SLOAD PUSH1 0xFF AND SWAP1 JUMP JUMPDEST PUSH0 DUP1 SLOAD PUSH1 0x60 SWAP2 DUP2 DUP5 GT PUSH2 0x255 JUMPI DUP4 PUSH2 0x257 JUMP JUMPDEST DUP2 JUMPDEST SWAP1 POP PUSH0 DUP2 PUSH8 0xFFFFFFFFFFFFFFFF DUP2 GT ISZERO PUSH2 0x273 JUMPI PUSH2 0x273 PUSH2 0xE0C JUMP JUMPDEST PUSH1 0x40 MLOAD SWAP1 DUP1 DUP3 MSTORE DUP1 PUSH1 0x20 MUL PUSH1 0x20 ADD DUP3 ADD PUSH1 0x40 MSTORE DUP1 ISZERO PUSH2 0x2DC JUMPI DUP2 PUSH1 0x20 ADD JUMPDEST PUSH2 0x2C9 PUSH1 0x40 MLOAD DUP1 PUSH1 0xA0 ADD PUSH1 0x40 MSTORE DUP1 PUSH0 DUP2 MSTORE PUSH1 0x20 ADD PUSH1 0x60 DUP2 MSTORE PUSH1 0x20 ADD PUSH0 DUP2 MSTORE PUSH1 0x20 ADD PUSH1 0x60 DUP2 MSTORE PUSH1 0x20 ADD PUSH0 PUSH1 0x1 PUSH1 0x1 PUSH1 0xA0 SHL SUB AND DUP2 MSTORE POP SWAP1 JUMP JUMPDEST DUP2 MSTORE PUSH1 0x20 ADD SWAP1 PUSH1 0x1 SWAP1 SUB SWAP1 DUP2 PUSH2 0x291 JUMPI SWAP1 POP JUMPDEST POP SWAP1 POP PUSH0 JUMPDEST DUP3 DUP2 LT ISZERO PUSH2 0x496 JUMPI PUSH0 DUP2 PUSH2 0x2F6 PUSH1 0x1 DUP8 PUSH2 0xFED JUMP JUMPDEST PUSH2 0x300 SWAP2 SWAP1 PUSH2 0xFED JUMP JUMPDEST DUP2 SLOAD DUP2 LT PUSH2 0x310 JUMPI PUSH2 0x310 PUSH2 0x1000 JUMP JUMPDEST SWAP1 PUSH0 MSTORE PUSH1 0x20 PUSH0 KECCAK256 SWAP1 PUSH1 0x5 MUL ADD PUSH1 0x40 MLOAD DUP1 PUSH1 0xA0 ADD PUSH1 0x40 MSTORE SWAP1 DUP2 PUSH0 DUP3 ADD SLOAD DUP2 MSTORE PUSH1 0x20 ADD PUSH1 0x1 DUP3 ADD DUP1 SLOAD PUSH2 0x340 SWAP1 PUSH2 0x1028 JUMP JUMPDEST DUP1 PUSH1 0x1F ADD PUSH1 0x20 DUP1 SWAP2 DIV MUL PUSH1 0x20 ADD PUSH1 0x40 MLOAD SWAP1 DUP2 ADD PUSH1 0x40 MSTORE DUP1 SWAP3 SWAP2 SWAP1 DUP2 DUP2 MSTORE PUSH1 0x20 ADD DUP3 DUP1 SLOAD PUSH2 0x36C SWAP1 PUSH2 0x1028 JUMP JUMPDEST DUP1 ISZERO PUSH2 0x3B7 JUMPI DUP1 PUSH1 0x1F LT PUSH2 0x38E JUMPI PUSH2 0x100 DUP1 DUP4 SLOAD DIV MUL DUP4 MSTORE SWAP2 PUSH1 0x20 ADD SWAP2 PUSH2 0x3B7 JUMP JUMPDEST DUP3 ADD SWAP2 SWAP1 PUSH0 MSTORE PUSH1 0x20 PUSH0 KECCAK256 SWAP1 JUMPDEST DUP2 SLOAD DUP2 MSTORE SWAP1 PUSH1 0x1 ADD SWAP1 PUSH1 0x20 ADD DUP1 DUP4 GT PUSH2 0x39A JUMPI DUP3 SWAP1 SUB PUSH1 0x1F AND DUP3 ADD SWAP2 JUMPDEST POP POP POP POP POP DUP2 MSTORE PUSH1 0x20 ADD PUSH1 0x2 DUP3 ADD SLOAD DUP2 MSTORE PUSH1 0x20 ADD PUSH1 0x3 DUP3 ADD DUP1 SLOAD PUSH2 0x3DA SWAP1 PUSH2 0x1028 JUMP JUMPDEST DUP1 PUSH1 0x1F ADD PUSH1 0x20 DUP1 SWAP2 DIV MUL PUSH1 0x20 ADD PUSH1 0x40 MLOAD SWAP1 DUP2 ADD PUSH1 0x40 MSTORE DUP1 SWAP3 SWAP2 SWAP1 DUP2 DUP2 MSTORE PUSH1 0x20 ADD DUP3 DUP1 SLOAD PUSH2 0x406 SWAP1 PUSH2 0x1028 JUMP JUMPDEST DUP1 ISZERO PUSH2 0x451 JUMPI DUP1 PUSH1 0x1F LT PUSH2 0x428 JUMPI PUSH2 0x100 DUP1 DUP4 SLOAD DIV MUL DUP4 MSTORE SWAP2 PUSH1 0x20 ADD SWAP2 PUSH2 0x451 JUMP JUMPDEST DUP3 ADD SWAP2 SWAP1 PUSH0 MSTORE PUSH1 0x20 PUSH0 KECCAK256 SWAP1 JUMPDEST DUP2 SLOAD DUP2 MSTORE SWAP1 PUSH1 0x1 ADD SWAP1 PUSH1 0x20 ADD DUP1 DUP4 GT PUSH2 0x434 JUMPI DUP3 SWAP1 SUB PUSH1 0x1F AND DUP3 ADD SWAP2 JUMPDEST POP POP POP SWAP2 DUP4 MSTORE POP POP PUSH1 0x4 SWAP2 SWAP1 SWAP2 ADD SLOAD PUSH1 0x1 PUSH1 0x1 PUSH1 0xA0 SHL SUB AND PUSH1 0x20 SWAP1 SWAP2 ADD MSTORE DUP3 MLOAD DUP4 SWAP1 DUP4 SWAP1 DUP2 LT PUSH2 0x483 JUMPI PUSH2 0x483 PUSH2 0x1000 JUMP JUMPDEST PUSH1 0x20 SWAP1 DUP2 MUL SWAP2 SWAP1 SWAP2 ADD ADD MSTORE PUSH1 0x1 ADD PUSH2 0x2E1 JUMP JUMPDEST POP SWAP5 SWAP4 POP POP POP POP JUMP JUMPDEST PUSH0 PUSH1 0x60 PUSH0 PUSH1 0x60 PUSH0 DUP1 DUP1 SLOAD SWAP1 POP DUP7 LT PUSH2 0x4D2 JUMPI PUSH1 0x40 MLOAD PUSH3 0x461BCD PUSH1 0xE5 SHL DUP2 MSTORE PUSH1 0x4 ADD PUSH2 0x4C9 SWAP1 PUSH2 0x1086 JUMP JUMPDEST PUSH1 0x40 MLOAD DUP1 SWAP2 SUB SWAP1 REVERT JUMPDEST PUSH0 DUP1 DUP8 DUP2 SLOAD DUP2 LT PUSH2 0x4E5 JUMPI PUSH2 0x4E5 PUSH2 0x1000 JUMP JUMPDEST SWAP1 PUSH0 MSTORE PUSH1 0x20 PUSH0 KECCAK256 SWAP1 PUSH1 0x5 MUL ADD PUSH1 0x40 MLOAD DUP1 PUSH1 0xA0 ADD PUSH1 0x40 MSTORE SWAP1 DUP2 PUSH0 DUP3 ADD SLOAD DUP2 MSTORE PUSH1 0x20 ADD PUSH1 0x1 DUP3 ADD DUP1 SLOAD PUSH2 0x515 SWAP1 PUSH2 0x1028 JUMP JUMPDEST DUP1 PUSH1 0x1F ADD PUSH1 0x20 DUP1 SWAP2 DIV MUL PUSH1 0x20 ADD PUSH1 0x40 MLOAD SWAP1 DUP2 ADD PUSH1 0x40 MSTORE DUP1 SWAP3 SWAP2 SWAP1 DUP2 DUP2 MSTORE PUSH1 0x20 ADD DUP3 DUP1 SLOAD PUSH2 0x541 SWAP1 PUSH2 0x1028 JUMP JUMPDEST DUP1 ISZERO PUSH2 0x58C JUMPI DUP1 PUSH1 0x1F LT PUSH2 0x563 JUMPI PUSH2 0x100 DUP1 DUP4 SLOAD DIV MUL DUP4 MSTORE SWAP2 PUSH1 0x20 ADD SWAP2 PUSH2 0x58C JUMP JUMPDEST DUP3 ADD SWAP2 SWAP1 PUSH0 MSTORE PUSH1 0x20 PUSH0 KECCAK256 SWAP1 JUMPDEST DUP2 SLOAD DUP2 MSTORE SWAP1 PUSH1 0x1 ADD SWAP1 PUSH1 0x20 ADD DUP1 DUP4 GT PUSH2 0x56F JUMPI DUP3 SWAP1 SUB PUSH1 0x1F AND DUP3 ADD SWAP2 JUMPDEST POP POP POP POP POP DUP2 MSTORE PUSH1 0x20 ADD PUSH1 0x2 DUP3 ADD SLOAD DUP2 MSTORE PUSH1 0x20 ADD PUSH1 0x3 DUP3 ADD DUP1 SLOAD PUSH2 0x5AF SWAP1 PUSH2 0x1028 JUMP JUMPDEST DUP1 PUSH1 0x1F ADD PUSH1 0x20 DUP1 SWAP2 DIV MUL PUSH1 0x20 ADD PUSH1 0x40 MLOAD SWAP1 DUP2 ADD PUSH1 0x40 MSTORE DUP1 SWAP3 SWAP2 SWAP1 DUP2 DUP2 MSTORE PUSH1 0x20 ADD DUP3 DUP1 SLOAD PUSH2 0x5DB SWAP1 PUSH2 0x1028 JUMP JUMPDEST DUP1 ISZERO PUSH2 0x626 JUMPI DUP1 PUSH1 0x1F LT PUSH2 0x5FD JUMPI PUSH2 0x100 DUP1 DUP4 SLOAD DIV MUL DUP4 MSTORE SWAP2 PUSH1 0x20 ADD SWAP2 PUSH2 0x626 JUMP JUMPDEST DUP3 ADD SWAP2 SWAP1 PUSH0 MSTORE PUSH1 0x20 PUSH0 KECCAK256 SWAP1 JUMPDEST DUP2 SLOAD DUP2 MSTORE SWAP1 PUSH1 0x1 ADD SWAP1 PUSH1 0x20 ADD DUP1 DUP4 GT PUSH2 0x609 JUMPI DUP3 SWAP1 SUB PUSH1 0x1F AND DUP3 ADD SWAP2 JUMPDEST POP POP POP SWAP2 DUP4 MSTORE POP POP PUSH1 0x4 SWAP2 SWAP1 SWAP2 ADD SLOAD PUSH1 0x1 PUSH1 0x1 PUSH1 0xA0 SHL SUB AND PUSH1 0x20 SWAP2 DUP3 ADD MSTORE DUP2 MLOAD SWAP1 DUP3 ADD MLOAD PUSH1 0x40 DUP4 ADD MLOAD PUSH1 0x60 DUP5 ADD MLOAD PUSH1 0x80 SWAP1 SWAP5 ADD MLOAD SWAP3 SWAP12 SWAP2 SWAP11 POP SWAP9 POP SWAP2 SWAP7 POP SWAP5 POP SWAP3 POP POP POP JUMP JUMPDEST PUSH1 0x3 SLOAD PUSH1 0x1 PUSH1 0x1 PUSH1 0xA0 SHL SUB AND CALLER EQ PUSH2 0x696 JUMPI PUSH1 0x40 MLOAD PUSH3 0x461BCD PUSH1 0xE5 SHL DUP2 MSTORE PUSH1 0x4 ADD PUSH2 0x4C9 SWAP1 PUSH2 0x10C8 JUMP JUMPDEST PUSH1 0x1 PUSH1 0x1 PUSH1 0xA0 SHL SUB DUP2 AND PUSH0 DUP2 DUP2 MSTORE PUSH1 0x2 PUSH1 0x20 MSTORE PUSH1 0x40 DUP1 DUP3 KECCAK256 DUP1 SLOAD PUSH1 0xFF NOT AND PUSH1 0x1 OR SWAP1 SSTORE MLOAD PUSH32 0x1593DDC0D82CBBAD9431BBA77EDB1C641CDDB2AE930B924E6316F525E3A0C96D SWAP2 SWAP1 LOG2 POP JUMP JUMPDEST PUSH0 DUP2 DUP2 SLOAD DUP2 LT PUSH2 0x6EF JUMPI PUSH0 DUP1 REVERT JUMPDEST PUSH0 SWAP2 DUP3 MSTORE PUSH1 0x20 SWAP1 SWAP2 KECCAK256 PUSH1 0x5 SWAP1 SWAP2 MUL ADD DUP1 SLOAD PUSH1 0x1 DUP3 ADD DUP1 SLOAD SWAP2 SWAP4 POP SWAP1 PUSH2 0x713 SWAP1 PUSH2 0x1028 JUMP JUMPDEST DUP1 PUSH1 0x1F ADD PUSH1 0x20 DUP1 SWAP2 DIV MUL PUSH1 0x20 ADD PUSH1 0x40 MLOAD SWAP1 DUP2 ADD PUSH1 0x40 MSTORE DUP1 SWAP3 SWAP2 SWAP1 DUP2 DUP2 MSTORE PUSH1 0x20 ADD DUP3 DUP1 SLOAD PUSH2 0x73F SWAP1 PUSH2 0x1028 JUMP JUMPDEST DUP1 ISZERO PUSH2 0x78A JUMPI DUP1 PUSH1 0x1F LT PUSH2 0x761 JUMPI PUSH2 0x100 DUP1 DUP4 SLOAD DIV MUL DUP4 MSTORE SWAP2 PUSH1 0x20 ADD SWAP2 PUSH2 0x78A JUMP JUMPDEST DUP3 ADD SWAP2 SWAP1 PUSH0 MSTORE PUSH1 0x20 PUSH0 KECCAK256 SWAP1 JUMPDEST DUP2 SLOAD DUP2 MSTORE SWAP1 PUSH1 0x1 ADD SWAP1 PUSH1 0x20 ADD DUP1 DUP4 GT PUSH2 0x76D JUMPI DUP3 SWAP1 SUB PUSH1 0x1F AND DUP3 ADD SWAP2 JUMPDEST POP POP POP POP POP SWAP1 DUP1 PUSH1 0x2 ADD SLOAD SWAP1 DUP1 PUSH1 0x3 ADD DUP1 SLOAD PUSH2 0x7A5 SWAP1 PUSH2 0x1028 JUMP JUMPDEST DUP1 PUSH1 0x1F ADD PUSH1 0x20 DUP1 SWAP2 DIV MUL PUSH1 0x20 ADD PUSH1 0x40 MLOAD SWAP1 DUP2 ADD PUSH1 0x40 MSTORE DUP1 SWAP3 SWAP2 SWAP1 DUP2 DUP2 MSTORE PUSH1 0x20 ADD DUP3 DUP1 SLOAD PUSH2 0x7D1 SWAP1 PUSH2 0x1028 JUMP JUMPDEST DUP1 ISZERO PUSH2 0x81C JUMPI DUP1 PUSH1 0x1F LT PUSH2 0x7F3 JUMPI PUSH2 0x100 DUP1 DUP4 SLOAD DIV MUL DUP4 MSTORE SWAP2 PUSH1 0x20 ADD SWAP2 PUSH2 0x81C JUMP JUMPDEST DUP3 ADD SWAP2 SWAP1 PUSH0 MSTORE PUSH1 0x20 PUSH0 KECCAK256 SWAP1 JUMPDEST DUP2 SLOAD DUP2 MSTORE SWAP1 PUSH1 0x1 ADD SWAP1 PUSH1 0x20 ADD DUP1 DUP4 GT PUSH2 0x7FF JUMPI DUP3 SWAP1 SUB PUSH1 0x1F AND DUP3 ADD SWAP2 JUMPDEST POP POP POP PUSH1 0x4 SWAP1 SWAP4 ADD SLOAD SWAP2 SWAP3 POP POP PUSH1 0x1 PUSH1 0x1 PUSH1 0xA0 SHL SUB AND DUP6 JUMP JUMPDEST PUSH1 0x1 PUSH1 0x20 MSTORE DUP2 PUSH0 MSTORE PUSH1 0x40 PUSH0 KECCAK256 DUP2 DUP2 SLOAD DUP2 LT PUSH2 0x84E JUMPI PUSH0 DUP1 REVERT JUMPDEST SWAP1 PUSH0 MSTORE PUSH1 0x20 PUSH0 KECCAK256 ADD PUSH0 SWAP2 POP SWAP2 POP POP SLOAD DUP2 JUMP JUMPDEST PUSH1 0x3 SLOAD PUSH1 0x1 PUSH1 0x1 PUSH1 0xA0 SHL SUB AND CALLER EQ PUSH2 0x88A JUMPI PUSH1 0x40 MLOAD PUSH3 0x461BCD PUSH1 0xE5 SHL DUP2 MSTORE PUSH1 0x4 ADD PUSH2 0x4C9 SWAP1 PUSH2 0x10C8 JUMP JUMPDEST PUSH1 0x3 SLOAD PUSH1 0x1 PUSH1 0x1 PUSH1 0xA0 SHL SUB SWAP1 DUP2 AND SWAP1 DUP3 AND SUB PUSH2 0x8B8 JUMPI PUSH1 0x40 MLOAD PUSH3 0x461BCD PUSH1 0xE5 SHL DUP2 MSTORE PUSH1 0x4 ADD PUSH2 0x4C9 SWAP1 PUSH2 0x110A JUMP JUMPDEST PUSH1 0x1 PUSH1 0x1 PUSH1 0xA0 SHL SUB DUP2 AND PUSH0 DUP2 DUP2 MSTORE PUSH1 0x2 PUSH1 0x20 MSTORE PUSH1 0x40 DUP1 DUP3 KECCAK256 DUP1 SLOAD PUSH1 0xFF NOT AND SWAP1 SSTORE MLOAD PUSH32 0xBEAB9F6AFE6EB7AFC2066C798CEA7D48FCF134893B3CF4C5BC030B244864A873 SWAP2 SWAP1 LOG2 POP JUMP JUMPDEST CALLER PUSH0 SWAP1 DUP2 MSTORE PUSH1 0x2 PUSH1 0x20 MSTORE PUSH1 0x40 SWAP1 KECCAK256 SLOAD PUSH1 0xFF AND DUP1 PUSH2 0x927 JUMPI POP PUSH1 0x3 SLOAD PUSH1 0x1 PUSH1 0x1 PUSH1 0xA0 SHL SUB AND CALLER EQ JUMPDEST PUSH2 0x943 JUMPI PUSH1 0x40 MLOAD PUSH3 0x461BCD PUSH1 0xE5 SHL DUP2 MSTORE PUSH1 0x4 ADD PUSH2 0x4C9 SWAP1 PUSH2 0x114A JUMP JUMPDEST PUSH1 0x40 DUP1 MLOAD PUSH1 0xA0 DUP2 ADD DUP3 MSTORE TIMESTAMP DUP2 MSTORE PUSH1 0x20 DUP2 ADD DUP6 DUP2 MSTORE SWAP2 DUP2 ADD DUP5 SWAP1 MSTORE PUSH1 0x60 DUP2 ADD DUP4 SWAP1 MSTORE CALLER PUSH1 0x80 DUP3 ADD MSTORE PUSH0 DUP1 SLOAD PUSH1 0x1 DUP2 ADD DUP3 SSTORE SWAP1 DUP1 MSTORE DUP2 MLOAD PUSH1 0x5 DUP3 MUL PUSH32 0x290DECD9548B62A8D60345A988386FC84BA6BC95484008F6362F93160EF3E563 DUP2 ADD SWAP2 DUP3 SSTORE SWAP4 MLOAD SWAP3 SWAP4 SWAP2 SWAP3 DUP5 SWAP3 PUSH32 0x290DECD9548B62A8D60345A988386FC84BA6BC95484008F6362F93160EF3E564 ADD SWAP1 PUSH2 0x9D7 SWAP1 DUP3 PUSH2 0x11F9 JUMP JUMPDEST POP PUSH1 0x40 DUP3 ADD MLOAD PUSH1 0x2 DUP3 ADD SSTORE PUSH1 0x60 DUP3 ADD MLOAD PUSH1 0x3 DUP3 ADD SWAP1 PUSH2 0x9F6 SWAP1 DUP3 PUSH2 0x11F9 JUMP JUMPDEST POP PUSH1 0x80 SWAP2 SWAP1 SWAP2 ADD MLOAD PUSH1 0x4 SWAP1 SWAP2 ADD DUP1 SLOAD PUSH32 0xFFFFFFFFFFFFFFFFFFFFFFFF0000000000000000000000000000000000000000 AND PUSH1 0x1 PUSH1 0x1 PUSH1 0xA0 SHL SUB SWAP1 SWAP3 AND SWAP2 SWAP1 SWAP2 OR SWAP1 SSTORE CALLER PUSH0 DUP2 DUP2 MSTORE PUSH1 0x1 PUSH1 0x20 DUP2 DUP2 MSTORE PUSH1 0x40 DUP1 DUP5 KECCAK256 DUP1 SLOAD SWAP4 DUP5 ADD DUP2 SSTORE DUP5 MSTORE SWAP3 KECCAK256 ADD DUP4 SWAP1 SSTORE MLOAD DUP3 SWAP1 PUSH32 0x60B110FBF7CDC422BBF651630CC3878D8FA6745F7772A9D437DDF05B19D337F3 SWAP1 PUSH2 0xA8C SWAP1 DUP10 SWAP1 DUP10 SWAP1 TIMESTAMP SWAP1 PUSH2 0x12B5 JUMP JUMPDEST PUSH1 0x40 MLOAD DUP1 SWAP2 SUB SWAP1 LOG3 POP POP POP POP POP JUMP JUMPDEST PUSH1 0x1 PUSH1 0x1 PUSH1 0xA0 SHL SUB DUP2 AND PUSH0 SWAP1 DUP2 MSTORE PUSH1 0x1 PUSH1 0x20 SWAP1 DUP2 MSTORE PUSH1 0x40 SWAP2 DUP3 SWAP1 KECCAK256 DUP1 SLOAD DUP4 MLOAD DUP2 DUP5 MUL DUP2 ADD DUP5 ADD SWAP1 SWAP5 MSTORE DUP1 DUP5 MSTORE PUSH1 0x60 SWAP4 SWAP3 DUP4 ADD DUP3 DUP3 DUP1 ISZERO PUSH2 0xAF8 JUMPI PUSH1 0x20 MUL DUP3 ADD SWAP2 SWAP1 PUSH0 MSTORE PUSH1 0x20 PUSH0 KECCAK256 SWAP1 JUMPDEST DUP2 SLOAD DUP2 MSTORE PUSH1 0x20 ADD SWAP1 PUSH1 0x1 ADD SWAP1 DUP1 DUP4 GT PUSH2 0xAE4 JUMPI JUMPDEST POP POP POP POP POP SWAP1 POP SWAP2 SWAP1 POP JUMP JUMPDEST PUSH0 DUP1 SLOAD DUP2 SUB PUSH2 0xB12 JUMPI POP PUSH0 SWAP1 JUMP JUMPDEST PUSH0 DUP1 JUMPDEST PUSH0 SLOAD DUP2 LT ISZERO PUSH2 0xB55 JUMPI PUSH0 DUP2 DUP2 SLOAD DUP2 LT PUSH2 0xB30 JUMPI PUSH2 0xB30 PUSH2 0x1000 JUMP JUMPDEST SWAP1 PUSH0 MSTORE PUSH1 0x20 PUSH0 KECCAK256 SWAP1 PUSH1 0x5 MUL ADD PUSH1 0x2 ADD SLOAD DUP3 PUSH2 0xB4B SWAP2 SWAP1 PUSH2 0x12EA JUMP JUMPDEST SWAP2 POP PUSH1 0x1 ADD PUSH2 0xB15 JUMP JUMPDEST POP PUSH0 SLOAD PUSH2 0xB62 SWAP1 DUP3 PUSH2 0x1311 JUMP JUMPDEST SWAP2 POP POP SWAP1 JUMP JUMPDEST DUP1 JUMPDEST DUP2 EQ PUSH2 0xB74 JUMPI PUSH0 DUP1 REVERT JUMPDEST POP JUMP JUMPDEST DUP1 CALLDATALOAD PUSH2 0xB82 DUP2 PUSH2 0xB68 JUMP JUMPDEST SWAP3 SWAP2 POP POP JUMP JUMPDEST PUSH0 PUSH1 0x20 DUP3 DUP5 SUB SLT ISZERO PUSH2 0xB9B JUMPI PUSH2 0xB9B PUSH0 DUP1 REVERT JUMPDEST PUSH2 0xBA5 DUP4 DUP4 PUSH2 0xB77 JUMP JUMPDEST SWAP4 SWAP3 POP POP POP JUMP JUMPDEST DUP1 JUMPDEST DUP3 MSTORE POP POP JUMP JUMPDEST PUSH0 JUMPDEST DUP4 DUP2 LT ISZERO PUSH2 0xBCE JUMPI DUP2 DUP2 ADD MLOAD DUP4 DUP3 ADD MSTORE PUSH1 0x20 ADD PUSH2 0xBB6 JUMP JUMPDEST POP POP PUSH0 SWAP2 ADD MSTORE JUMP JUMPDEST PUSH0 PUSH2 0xBDF DUP3 MLOAD SWAP1 JUMP JUMPDEST DUP1 DUP5 MSTORE PUSH1 0x20 DUP5 ADD SWAP4 POP PUSH2 0xBF6 DUP2 DUP6 PUSH1 0x20 DUP7 ADD PUSH2 0xBB4 JUMP JUMPDEST PUSH1 0x1F ADD PUSH1 0x1F NOT AND SWAP3 SWAP1 SWAP3 ADD SWAP3 SWAP2 POP POP JUMP JUMPDEST PUSH0 PUSH1 0x1 PUSH1 0x1 PUSH1 0xA0 SHL SUB DUP3 AND PUSH2 0xB82 JUMP JUMPDEST PUSH2 0xBAE DUP2 PUSH2 0xC07 JUMP JUMPDEST DUP1 MLOAD PUSH0 SWAP1 PUSH1 0xA0 DUP5 ADD SWAP1 PUSH2 0xC33 DUP6 DUP3 PUSH2 0xBAC JUMP JUMPDEST POP PUSH1 0x20 DUP4 ADD MLOAD DUP5 DUP3 SUB PUSH1 0x20 DUP7 ADD MSTORE PUSH2 0xC4B DUP3 DUP3 PUSH2 0xBD6 JUMP JUMPDEST SWAP2 POP POP PUSH1 0x40 DUP4 ADD MLOAD PUSH2 0xC60 PUSH1 0x40 DUP7 ADD DUP3 PUSH2 0xBAC JUMP JUMPDEST POP PUSH1 0x60 DUP4 ADD MLOAD DUP5 DUP3 SUB PUSH1 0x60 DUP7 ADD MSTORE PUSH2 0xC78 DUP3 DUP3 PUSH2 0xBD6 JUMP JUMPDEST SWAP2 POP POP PUSH1 0x80 DUP4 ADD MLOAD PUSH2 0xC8D PUSH1 0x80 DUP7 ADD DUP3 PUSH2 0xC17 JUMP JUMPDEST POP SWAP4 SWAP3 POP POP POP JUMP JUMPDEST PUSH0 PUSH2 0xBA5 DUP4 DUP4 PUSH2 0xC20 JUMP JUMPDEST PUSH1 0x20 ADD SWAP1 JUMP JUMPDEST PUSH0 PUSH2 0xCAF DUP3 MLOAD SWAP1 JUMP JUMPDEST DUP1 DUP5 MSTORE PUSH1 0x20 DUP5 ADD SWAP4 POP DUP4 PUSH1 0x20 DUP3 MUL DUP6 ADD PUSH2 0xCC9 DUP6 PUSH1 0x20 ADD SWAP1 JUMP JUMPDEST PUSH0 JUMPDEST DUP5 DUP2 LT ISZERO PUSH2 0xCFC JUMPI DUP4 DUP4 SUB DUP9 MSTORE DUP2 MLOAD PUSH2 0xCE4 DUP5 DUP3 PUSH2 0xC95 JUMP JUMPDEST SWAP4 POP POP PUSH1 0x20 DUP3 ADD PUSH1 0x20 SWAP9 SWAP1 SWAP9 ADD SWAP8 SWAP2 POP PUSH1 0x1 ADD PUSH2 0xCCB JUMP JUMPDEST POP SWAP1 SWAP7 SWAP6 POP POP POP POP POP POP JUMP JUMPDEST PUSH1 0x20 DUP1 DUP3 MSTORE DUP2 ADD PUSH2 0xBA5 DUP2 DUP5 PUSH2 0xCA6 JUMP JUMPDEST PUSH1 0xA0 DUP2 ADD PUSH2 0xD27 DUP3 DUP9 PUSH2 0xBAC JUMP JUMPDEST DUP2 DUP2 SUB PUSH1 0x20 DUP4 ADD MSTORE PUSH2 0xD39 DUP2 DUP8 PUSH2 0xBD6 JUMP JUMPDEST SWAP1 POP PUSH2 0xD48 PUSH1 0x40 DUP4 ADD DUP7 PUSH2 0xBAC JUMP JUMPDEST DUP2 DUP2 SUB PUSH1 0x60 DUP4 ADD MSTORE PUSH2 0xD5A DUP2 DUP6 PUSH2 0xBD6 JUMP JUMPDEST SWAP1 POP PUSH2 0xD69 PUSH1 0x80 DUP4 ADD DUP5 PUSH2 0xC17 JUMP JUMPDEST SWAP7 SWAP6 POP POP POP POP POP POP JUMP JUMPDEST PUSH2 0xB6A DUP2 PUSH2 0xC07 JUMP JUMPDEST DUP1 CALLDATALOAD PUSH2 0xB82 DUP2 PUSH2 0xD73 JUMP JUMPDEST PUSH0 PUSH1 0x20 DUP3 DUP5 SUB SLT ISZERO PUSH2 0xD9A JUMPI PUSH2 0xD9A PUSH0 DUP1 REVERT JUMPDEST PUSH2 0xBA5 DUP4 DUP4 PUSH2 0xD7C JUMP JUMPDEST PUSH0 DUP1 PUSH1 0x40 DUP4 DUP6 SUB SLT ISZERO PUSH2 0xDB8 JUMPI PUSH2 0xDB8 PUSH0 DUP1 REVERT JUMPDEST PUSH2 0xDC2 DUP5 DUP5 PUSH2 0xD7C JUMP JUMPDEST SWAP2 POP PUSH2 0xDD1 DUP5 PUSH1 0x20 DUP6 ADD PUSH2 0xB77 JUMP JUMPDEST SWAP1 POP SWAP3 POP SWAP3 SWAP1 POP JUMP JUMPDEST PUSH1 0x20 DUP2 ADD PUSH2 0xB82 DUP3 DUP5 PUSH2 0xBAC JUMP JUMPDEST PUSH1 0x20 DUP2 ADD PUSH2 0xB82 DUP3 DUP5 PUSH2 0xC17 JUMP JUMPDEST DUP1 ISZERO ISZERO PUSH2 0xBAE JUMP JUMPDEST PUSH1 0x20 DUP2 ADD PUSH2 0xB82 DUP3 DUP5 PUSH2 0xDF6 JUMP JUMPDEST PUSH4 0x4E487B71 PUSH1 0xE0 SHL PUSH0 MSTORE PUSH1 0x41 PUSH1 0x4 MSTORE PUSH1 0x24 PUSH0 REVERT JUMPDEST PUSH1 0x1F NOT PUSH1 0x1F DUP4 ADD AND DUP2 ADD DUP2 DUP2 LT PUSH8 0xFFFFFFFFFFFFFFFF DUP3 GT OR ISZERO PUSH2 0xE46 JUMPI PUSH2 0xE46 PUSH2 0xE0C JUMP JUMPDEST PUSH1 0x40 MSTORE POP POP JUMP JUMPDEST PUSH0 PUSH2 0xE57 PUSH1 0x40 MLOAD SWAP1 JUMP JUMPDEST SWAP1 POP PUSH2 0xE63 DUP3 DUP3 PUSH2 0xE20 JUMP JUMPDEST SWAP2 SWAP1 POP JUMP JUMPDEST PUSH0 PUSH8 0xFFFFFFFFFFFFFFFF DUP3 GT ISZERO PUSH2 0xE81 JUMPI PUSH2 0xE81 PUSH2 0xE0C JUMP JUMPDEST PUSH1 0x1F NOT PUSH1 0x1F DUP4 ADD AND PUSH1 0x20 ADD SWAP3 SWAP2 POP POP JUMP JUMPDEST DUP3 DUP2 DUP4 CALLDATACOPY POP PUSH0 SWAP2 ADD MSTORE JUMP JUMPDEST PUSH0 PUSH2 0xEAF PUSH2 0xEAA DUP5 PUSH2 0xE68 JUMP JUMPDEST PUSH2 0xE4D JUMP JUMPDEST SWAP1 POP DUP3 DUP2 MSTORE DUP4 DUP4 DUP4 ADD GT ISZERO PUSH2 0xEC5 JUMPI PUSH2 0xEC5 PUSH0 DUP1 REVERT JUMPDEST PUSH2 0xBA5 DUP4 PUSH1 0x20 DUP4 ADD DUP5 PUSH2 0xE92 JUMP JUMPDEST PUSH0 DUP3 PUSH1 0x1F DUP4 ADD SLT PUSH2 0xEE5 JUMPI PUSH2 0xEE5 PUSH0 DUP1 REVERT JUMPDEST PUSH2 0xBA5 DUP4 DUP4 CALLDATALOAD PUSH1 0x20 DUP6 ADD PUSH2 0xE9D JUMP JUMPDEST PUSH0 DUP1 PUSH0 PUSH1 0x60 DUP5 DUP7 SUB SLT ISZERO PUSH2 0xF09 JUMPI PUSH2 0xF09 PUSH0 DUP1 REVERT JUMPDEST DUP4 CALLDATALOAD PUSH8 0xFFFFFFFFFFFFFFFF DUP2 GT ISZERO PUSH2 0xF22 JUMPI PUSH2 0xF22 PUSH0 DUP1 REVERT JUMPDEST PUSH2 0xF2E DUP7 DUP3 DUP8 ADD PUSH2 0xED3 JUMP JUMPDEST SWAP4 POP POP PUSH2 0xF3E DUP6 PUSH1 0x20 DUP7 ADD PUSH2 0xB77 JUMP JUMPDEST SWAP2 POP PUSH1 0x40 DUP5 ADD CALLDATALOAD PUSH8 0xFFFFFFFFFFFFFFFF DUP2 GT ISZERO PUSH2 0xF5C JUMPI PUSH2 0xF5C PUSH0 DUP1 REVERT JUMPDEST PUSH2 0xF68 DUP7 DUP3 DUP8 ADD PUSH2 0xED3 JUMP JUMPDEST SWAP2 POP POP SWAP3 POP SWAP3 POP SWAP3 JUMP JUMPDEST PUSH2 0xF7C DUP3 DUP3 PUSH2 0xBAC JUMP JUMPDEST POP PUSH1 0x20 ADD SWAP1 JUMP JUMPDEST PUSH0 PUSH2 0xF8C DUP3 MLOAD SWAP1 JUMP JUMPDEST DUP1 DUP5 MSTORE PUSH1 0x20 SWAP4 DUP5 ADD SWAP4 DUP4 ADD PUSH0 JUMPDEST DUP3 DUP2 LT ISZERO PUSH2 0xFBE JUMPI DUP2 MLOAD PUSH2 0xFAD DUP8 DUP3 PUSH2 0xF72 JUMP JUMPDEST SWAP7 POP POP PUSH1 0x20 DUP3 ADD SWAP2 POP PUSH1 0x1 ADD PUSH2 0xF99 JUMP JUMPDEST POP SWAP4 SWAP5 SWAP4 POP POP POP POP JUMP JUMPDEST PUSH1 0x20 DUP1 DUP3 MSTORE DUP2 ADD PUSH2 0xBA5 DUP2 DUP5 PUSH2 0xF83 JUMP JUMPDEST PUSH4 0x4E487B71 PUSH1 0xE0 SHL PUSH0 MSTORE PUSH1 0x11 PUSH1 0x4 MSTORE PUSH1 0x24 PUSH0 REVERT JUMPDEST DUP2 DUP2 SUB DUP2 DUP2 GT ISZERO PUSH2 0xB82 JUMPI PUSH2 0xB82 PUSH2 0xFD9 JUMP JUMPDEST PUSH4 0x4E487B71 PUSH1 0xE0 SHL PUSH0 MSTORE PUSH1 0x32 PUSH1 0x4 MSTORE PUSH1 0x24 PUSH0 REVERT JUMPDEST PUSH4 0x4E487B71 PUSH1 0xE0 SHL PUSH0 MSTORE PUSH1 0x22 PUSH1 0x4 MSTORE PUSH1 0x24 PUSH0 REVERT JUMPDEST PUSH1 0x2 DUP2 DIV PUSH1 0x1 DUP3 AND DUP1 PUSH2 0x103C JUMPI PUSH1 0x7F DUP3 AND SWAP2 POP JUMPDEST PUSH1 0x20 DUP3 LT DUP2 SUB PUSH2 0x104E JUMPI PUSH2 0x104E PUSH2 0x1014 JUMP JUMPDEST POP SWAP2 SWAP1 POP JUMP JUMPDEST PUSH1 0x15 DUP2 MSTORE PUSH1 0x20 DUP2 ADD PUSH32 0x4D657472696320646F6573206E6F742065786973740000000000000000000000 DUP2 MSTORE SWAP1 POP PUSH2 0xCA0 JUMP JUMPDEST PUSH1 0x20 DUP1 DUP3 MSTORE DUP2 ADD PUSH2 0xB82 DUP2 PUSH2 0x1054 JUMP JUMPDEST PUSH1 0xE DUP2 MSTORE PUSH1 0x20 DUP2 ADD PUSH32 0x4E6F7420617574686F72697A6564000000000000000000000000000000000000 DUP2 MSTORE SWAP1 POP PUSH2 0xCA0 JUMP JUMPDEST PUSH1 0x20 DUP1 DUP3 MSTORE DUP2 ADD PUSH2 0xB82 DUP2 PUSH2 0x1096 JUMP JUMPDEST PUSH1 0x13 DUP2 MSTORE PUSH1 0x20 DUP2 ADD PUSH32 0x43616E6E6F74207265766F6B65206F776E657200000000000000000000000000 DUP2 MSTORE SWAP1 POP PUSH2 0xCA0 JUMP JUMPDEST PUSH1 0x20 DUP1 DUP3 MSTORE DUP2 ADD PUSH2 0xB82 DUP2 PUSH2 0x10D8 JUMP JUMPDEST PUSH1 0x20 DUP1 DUP3 MSTORE PUSH32 0x4E6F7420617574686F72697A656420746F207265636F7264206D657472696373 SWAP2 ADD SWAP1 DUP2 MSTORE PUSH2 0xCA0 JUMP JUMPDEST PUSH1 0x20 DUP1 DUP3 MSTORE DUP2 ADD PUSH2 0xB82 DUP2 PUSH2 0x111A JUMP JUMPDEST PUSH0 PUSH2 0xB82 PUSH2 0x1165 DUP4 DUP2 JUMP JUMPDEST SWAP1 JUMP JUMPDEST PUSH2 0x1171 DUP4 PUSH2 0x115A JUMP JUMPDEST DUP2 SLOAD PUSH0 NOT PUSH1 0x8 SWAP5 SWAP1 SWAP5 MUL SWAP4 DUP5 SHL NOT AND SWAP3 SHL SWAP2 SWAP1 SWAP2 OR SWAP1 SSTORE POP JUMP JUMPDEST PUSH0 PUSH2 0x1197 DUP2 DUP5 DUP5 PUSH2 0x1168 JUMP JUMPDEST POP POP POP JUMP JUMPDEST DUP2 DUP2 LT ISZERO PUSH2 0x11B6 JUMPI PUSH2 0x11AE PUSH0 DUP3 PUSH2 0x118B JUMP JUMPDEST PUSH1 0x1 ADD PUSH2 0x119C JUMP JUMPDEST POP POP JUMP JUMPDEST PUSH1 0x1F DUP3 GT ISZERO PUSH2 0x1197 JUMPI PUSH0 DUP2 DUP2 MSTORE PUSH1 0x20 SWAP1 KECCAK256 PUSH1 0x20 PUSH1 0x1F DUP6 ADD DIV DUP2 ADD PUSH1 0x20 DUP6 LT ISZERO PUSH2 0x11E0 JUMPI POP DUP1 JUMPDEST PUSH2 0x11F2 PUSH1 0x20 PUSH1 0x1F DUP7 ADD DIV DUP4 ADD DUP3 PUSH2 0x119C JUMP JUMPDEST POP POP POP POP POP JUMP JUMPDEST DUP2 MLOAD PUSH8 0xFFFFFFFFFFFFFFFF DUP2 GT ISZERO PUSH2 0x1213 JUMPI PUSH2 0x1213 PUSH2 0xE0C JUMP JUMPDEST PUSH2 0x121D DUP3 SLOAD PUSH2 0x1028 JUMP JUMPDEST PUSH2 0x1228 DUP3 DUP3 DUP6 PUSH2 0x11BA JUMP JUMPDEST POP PUSH1 0x20 PUSH1 0x1F DUP3 GT PUSH1 0x1 DUP2 EQ PUSH2 0x125B JUMPI PUSH0 DUP4 ISZERO PUSH2 0x1244 JUMPI POP DUP5 DUP3 ADD MLOAD JUMPDEST PUSH0 NOT PUSH1 0x8 DUP6 MUL SHR NOT DUP2 AND PUSH1 0x2 DUP6 MUL OR DUP6 SSTORE POP PUSH2 0x11F2 JUMP JUMPDEST PUSH0 DUP5 DUP2 MSTORE PUSH1 0x20 DUP2 KECCAK256 PUSH1 0x1F NOT DUP6 AND SWAP2 JUMPDEST DUP3 DUP2 LT ISZERO PUSH2 0x128A JUMPI DUP8 DUP6 ADD MLOAD DUP3 SSTORE PUSH1 0x20 SWAP5 DUP6 ADD SWAP5 PUSH1 0x1 SWAP1 SWAP3 ADD SWAP2 ADD PUSH2 0x126A JUMP JUMPDEST POP DUP5 DUP3 LT ISZERO PUSH2 0x12A6 JUMPI DUP4 DUP8 ADD MLOAD PUSH0 NOT PUSH1 0x1F DUP8 AND PUSH1 0x8 MUL SHR NOT AND DUP2 SSTORE JUMPDEST POP POP POP POP PUSH1 0x2 MUL PUSH1 0x1 ADD SWAP1 SSTORE POP JUMP JUMPDEST PUSH1 0x60 DUP1 DUP3 MSTORE DUP2 ADD PUSH2 0x12C6 DUP2 DUP7 PUSH2 0xBD6 JUMP JUMPDEST SWAP1 POP PUSH2 0x12D5 PUSH1 0x20 DUP4 ADD DUP6 PUSH2 0xBAC JUMP JUMPDEST PUSH2 0x12E2 PUSH1 0x40 DUP4 ADD DUP5 PUSH2 0xBAC JUMP JUMPDEST SWAP5 SWAP4 POP POP POP POP JUMP JUMPDEST DUP1 DUP3 ADD DUP1 DUP3 GT ISZERO PUSH2 0xB82 JUMPI PUSH2 0xB82 PUSH2 0xFD9 JUMP JUMPDEST PUSH4 0x4E487B71 PUSH1 0xE0 SHL PUSH0 MSTORE PUSH1 0x12 PUSH1 0x4 MSTORE PUSH1 0x24 PUSH0 REVERT JUMPDEST PUSH0 DUP3 PUSH2 0x131F JUMPI PUSH2 0x131F PUSH2 0x12FD JUMP JUMPDEST POP DIV SWAP1 JUMP INVALID LOG2 PUSH5 0x6970667358 0x22 SLT KECCAK256 0xA5 GASPRICE 0xBB 0xBC SELFDESTRUCT SWAP15 PUSH31 0x8497CC2150B53BC948C3DB117B0D8047C6A4138547638A3E8664736F6C6343 STOP ADDMOD XOR STOP CALLER "},"methodIdentifiers":{"authorizeRecorder(address)":"6ba49fa0","authorizedRecorders(address)":"ac9a5e9a","getAverageValue()":"e3d1360a","getLatestMetrics(uint256)":"26fc0967","getMetric(uint256)":"582bd8f1","getMetricsCount()":"cf4a75be","getUserMetrics(address)":"c5f57015","isAuthorized(address)":"fe9fbb80","metrics(uint256)":"6d9aac62","owner()":"8da5cb5b","recordMetric(string,uint256,string)":"b84bb860","revokeRecorder(address)":"af23e87c","userMetrics(address,uint256)":"895538eb"}}}}}