{
  "_format": "hh-sol-artifact-1",
  "contractName": "PerformanceMonitor",
  "sourceName": "contracts/PerformanceMonitor.sol",
  "abi": [
    {
      "inputs": [],
      "stateMutability": "nonpayable",
      "type": "constructor"
    },
    {
      "anonymous": false,
      "inputs": [
        {
          "indexed": true,
          "internalType": "uint256",
          "name": "id",
          "type": "uint256"
        },
        {
          "indexed": true,
          "internalType": "address",
          "name": "recorder",
          "type": "address"
        },
        {
          "indexed": false,
          "internalType": "string",
          "name": "metricName",
          "type": "string"
        },
        {
          "indexed": false,
          "internalType": "uint256",
          "name": "value",
          "type": "uint256"
        },
        {
          "indexed": false,
          "internalType": "uint256",
          "name": "timestamp",
          "type": "uint256"
        }
      ],
      "name": "MetricRecorded",
      "type": "event"
    },
    {
      "anonymous": false,
      "inputs": [
        {
          "indexed": true,
          "internalType": "address",
          "name": "recorder",
          "type": "address"
        }
      ],
      "name": "RecorderAuthorized",
      "type": "event"
    },
    {
      "anonymous": false,
      "inputs": [
        {
          "indexed": true,
          "internalType": "address",
          "name": "recorder",
          "type": "address"
        }
      ],
      "name": "RecorderRevoked",
      "type": "event"
    },
    {
      "inputs": [
        {
          "internalType": "address",
          "name": "recorder",
          "type": "address"
        }
      ],
      "name": "authorizeRecorder",
      "outputs": [],
      "stateMutability": "nonpayable",
      "type": "function"
    },
    {
      "inputs": [
        {
          "internalType": "address",
          "name": "",
          "type": "address"
        }
      ],
      "name": "authorizedRecorders",
      "outputs": [
        {
          "internalType": "bool",
          "name": "",
          "type": "bool"
        }
      ],
      "stateMutability": "view",
      "type": "function"
    },
    {
      "inputs": [],
      "name": "getAverageValue",
      "outputs": [
        {
          "internalType": "uint256",
          "name": "",
          "type": "uint256"
        }
      ],
      "stateMutability": "view",
      "type": "function"
    },
    {
      "inputs": [
        {
          "internalType": "uint256",
          "name": "count",
          "type": "uint256"
        }
      ],
      "name": "getLatestMetrics",
      "outputs": [
        {
          "components": [
            {
              "internalType": "uint256",
              "name": "timestamp",
              "type": "uint256"
            },
            {
              "internalType": "string",
              "name": "metricName",
              "type": "string"
            },
            {
              "internalType": "uint256",
              "name": "value",
              "type": "uint256"
            },
            {
              "internalType": "string",
              "name": "unit",
              "type": "string"
            },
            {
              "internalType": "address",
              "name": "recorder",
              "type": "address"
            }
          ],
          "internalType": "struct PerformanceMonitor.Metric[]",
          "name": "",
          "type": "tuple[]"
        }
      ],
      "stateMutability": "view",
      "type": "function"
    },
    {
      "inputs": [
        {
          "internalType": "uint256",
          "name": "id",
          "type": "uint256"
        }
      ],
      "name": "getMetric",
      "outputs": [
        {
          "internalType": "uint256",
          "name": "timestamp",
          "type": "uint256"
        },
        {
          "internalType": "string",
          "name": "metricName",
          "type": "string"
        },
        {
          "internalType": "uint256",
          "name": "value",
          "type": "uint256"
        },
        {
          "internalType": "string",
          "name": "unit",
          "type": "string"
        },
        {
          "internalType": "address",
          "name": "recorder",
          "type": "address"
        }
      ],
      "stateMutability": "view",
      "type": "function"
    },
    {
      "inputs": [],
      "name": "getMetricsCount",
      "outputs": [
        {
          "internalType": "uint256",
          "name": "",
          "type": "uint256"
        }
      ],
      "stateMutability": "view",
      "type": "function"
    },
    {
      "inputs": [
        {
          "internalType": "address",
          "name": "user",
          "type": "address"
        }
      ],
      "name": "getUserMetrics",
      "outputs": [
        {
          "internalType": "uint256[]",
          "name": "",
          "type": "uint256[]"
        }
      ],
      "stateMutability": "view",
      "type": "function"
    },
    {
      "inputs": [
        {
          "internalType": "address",
          "name": "recorder",
          "type": "address"
        }
      ],
      "name": "isAuthorized",
      "outputs": [
        {
          "internalType": "bool",
          "name": "",
          "type": "bool"
        }
      ],
      "stateMutability": "view",
      "type": "function"
    },
    {
      "inputs": [
        {
          "internalType": "uint256",
          "name": "",
          "type": "uint256"
        }
      ],
      "name": "metrics",
      "outputs": [
        {
          "internalType": "uint256",
          "name": "timestamp",
          "type": "uint256"
        },
        {
          "internalType": "string",
          "name": "metricName",
          "type": "string"
        },
        {
          "internalType": "uint256",
          "name": "value",
          "type": "uint256"
        },
        {
          "internalType": "string",
          "name": "unit",
          "type": "string"
        },
        {
          "internalType": "address",
          "name": "recorder",
          "type": "address"
        }
      ],
      "stateMutability": "view",
      "type": "function"
    },
    {
      "inputs": [],
      "name": "owner",
      "outputs": [
        {
          "internalType": "address",
          "name": "",
          "type": "address"
        }
      ],
      "stateMutability": "view",
      "type": "function"
    },
    {
      "inputs": [
        {
          "internalType": "string",
          "name": "metricName",
          "type": "string"
        },
        {
          "internalType": "uint256",
          "name": "value",
          "type": "uint256"
        },
        {
          "internalType": "string",
          "name": "unit",
          "type": "string"
        }
      ],
      "name": "recordMetric",
      "outputs": [],
      "stateMutability": "nonpayable",
      "type": "function"
    },
    {
      "inputs": [
        {
          "internalType": "address",
          "name": "recorder",
          "type": "address"
        }
      ],
      "name": "revokeRecorder",
      "outputs": [],
      "stateMutability": "nonpayable",
      "type": "function"
    },
    {
      "inputs": [
        {
          "internalType": "address",
          "name": "",
          "type": "address"
        },
        {
          "internalType": "uint256",
          "name": "",
          "type": "uint256"
        }
      ],
      "name": "userMetrics",
      "outputs": [
        {
          "internalType": "uint256",
          "name": "",
          "type": "uint256"
        }
      ],
      "stateMutability": "view",
      "type": "function"
    }
  ],
  "bytecode": "0x608060405234801561000f575f80fd5b50600380546001600160a01b031916339081179091555f908152600260205260409020805460ff1916600117905561135a8061004a5f395ff3fe608060405234801561000f575f80fd5b50600436106100da575f3560e01c8063ac9a5e9a11610088578063c5f5701511610063578063c5f57015146101e8578063cf4a75be14610208578063e3d1360a1461020f578063fe9fbb8014610217575f80fd5b8063ac9a5e9a14610193578063af23e87c146101c2578063b84bb860146101d5575f80fd5b80636d9aac62116100b85780636d9aac6214610140578063895538eb146101535780638da5cb5b14610173575f80fd5b806326fc0967146100de578063582bd8f1146101075780636ba49fa01461012b575b5f80fd5b6100f16100ec366004610b88565b610242565b6040516100fe9190610d08565b60405180910390f35b61011a610115366004610b88565b61049f565b6040516100fe959493929190610d19565b61013e610139366004610d87565b61066c565b005b61011a61014e366004610b88565b6106e1565b610166610161366004610da4565b610835565b6040516100fe9190610dda565b600354610186906001600160a01b031681565b6040516100fe9190610de8565b6101b56101a1366004610d87565b60026020525f908152604090205460ff1681565b6040516100fe9190610dfe565b61013e6101d0366004610d87565b610860565b61013e6101e3366004610ef4565b610900565b6101fb6101f6366004610d87565b610a9b565b6040516100fe9190610fc8565b5f54610166565b610166610b04565b6101b5610225366004610d87565b6001600160a01b03165f9081526002602052604090205460ff1690565b5f80546060918184116102555783610257565b815b90505f8167ffffffffffffffff81111561027357610273610e0c565b6040519080825280602002602001820160405280156102dc57816020015b6102c96040518060a001604052805f8152602001606081526020015f8152602001606081526020015f6001600160a01b031681525090565b8152602001906001900390816102915790505b5090505f5b82811015610496575f816102f6600187610fed565b6103009190610fed565b8154811061031057610310611000565b905f5260205f2090600502016040518060a00160405290815f820154815260200160018201805461034090611028565b80601f016020809104026020016040519081016040528092919081815260200182805461036c90611028565b80156103b75780601f1061038e576101008083540402835291602001916103b7565b820191905f5260205f20905b81548152906001019060200180831161039a57829003601f168201915b50505050508152602001600282015481526020016003820180546103da90611028565b80601f016020809104026020016040519081016040528092919081815260200182805461040690611028565b80156104515780601f1061042857610100808354040283529160200191610451565b820191905f5260205f20905b81548152906001019060200180831161043457829003601f168201915b5050509183525050600491909101546001600160a01b0316602090910152825183908390811061048357610483611000565b60209081029190910101526001016102e1565b50949350505050565b5f60605f60605f808054905086106104d25760405162461bcd60e51b81526004016104c990611086565b60405180910390fd5b5f8087815481106104e5576104e5611000565b905f5260205f2090600502016040518060a00160405290815f820154815260200160018201805461051590611028565b80601f016020809104026020016040519081016040528092919081815260200182805461054190611028565b801561058c5780601f106105635761010080835404028352916020019161058c565b820191905f5260205f20905b81548152906001019060200180831161056f57829003601f168201915b50505050508152602001600282015481526020016003820180546105af90611028565b80601f01602080910402602001604051908101604052809291908181526020018280546105db90611028565b80156106265780601f106105fd57610100808354040283529160200191610626565b820191905f5260205f20905b81548152906001019060200180831161060957829003601f168201915b5050509183525050600491909101546001600160a01b031660209182015281519082015160408301516060840151608090940151929b919a509850919650945092505050565b6003546001600160a01b031633146106965760405162461bcd60e51b81526004016104c9906110c8565b6001600160a01b0381165f81815260026020526040808220805460ff19166001179055517f1593ddc0d82cbbad9431bba77edb1c641cddb2ae930b924e6316f525e3a0c96d9190a250565b5f81815481106106ef575f80fd5b5f918252602090912060059091020180546001820180549193509061071390611028565b80601f016020809104026020016040519081016040528092919081815260200182805461073f90611028565b801561078a5780601f106107615761010080835404028352916020019161078a565b820191905f5260205f20905b81548152906001019060200180831161076d57829003601f168201915b5050505050908060020154908060030180546107a590611028565b80601f01602080910402602001604051908101604052809291908181526020018280546107d190611028565b801561081c5780601f106107f35761010080835404028352916020019161081c565b820191905f5260205f20905b8154815290600101906020018083116107ff57829003601f168201915b505050600490930154919250506001600160a01b031685565b6001602052815f5260405f20818154811061084e575f80fd5b905f5260205f20015f91509150505481565b6003546001600160a01b0316331461088a5760405162461bcd60e51b81526004016104c9906110c8565b6003546001600160a01b03908116908216036108b85760405162461bcd60e51b81526004016104c99061110a565b6001600160a01b0381165f81815260026020526040808220805460ff19169055517fbeab9f6afe6eb7afc2066c798cea7d48fcf134893b3cf4c5bc030b244864a8739190a250565b335f9081526002602052604090205460ff168061092757506003546001600160a01b031633145b6109435760405162461bcd60e51b81526004016104c99061114a565b6040805160a08101825242815260208101858152918101849052606081018390523360808201525f80546001810182559080528151600582027f290decd9548b62a8d60345a988386fc84ba6bc95484008f6362f93160ef3e563810191825593519293919284927f290decd9548b62a8d60345a988386fc84ba6bc95484008f6362f93160ef3e56401906109d790826111f9565b5060408201516002820155606082015160038201906109f690826111f9565b5060809190910151600490910180547fffffffffffffffffffffffff0000000000000000000000000000000000000000166001600160a01b03909216919091179055335f8181526001602081815260408084208054938401815584529220018390555182907f60b110fbf7cdc422bbf651630cc3878d8fa6745f7772a9d437ddf05b19d337f390610a8c908990899042906112b5565b60405180910390a35050505050565b6001600160a01b0381165f90815260016020908152604091829020805483518184028101840190945280845260609392830182828015610af857602002820191905f5260205f20905b815481526020019060010190808311610ae4575b50505050509050919050565b5f80548103610b1257505f90565b5f805b5f54811015610b55575f8181548110610b3057610b30611000565b905f5260205f2090600502016002015482610b4b91906112ea565b9150600101610b15565b505f54610b629082611311565b91505090565b805b8114610b74575f80fd5b50565b8035610b8281610b68565b92915050565b5f60208284031215610b9b57610b9b5f80fd5b610ba58383610b77565b9392505050565b805b82525050565b5f5b83811015610bce578181015183820152602001610bb6565b50505f910152565b5f610bdf825190565b808452602084019350610bf6818560208601610bb4565b601f01601f19169290920192915050565b5f6001600160a01b038216610b82565b610bae81610c07565b80515f9060a0840190610c338582610bac565b5060208301518482036020860152610c4b8282610bd6565b9150506040830151610c606040860182610bac565b5060608301518482036060860152610c788282610bd6565b9150506080830151610c8d6080860182610c17565b509392505050565b5f610ba58383610c20565b60200190565b5f610caf825190565b80845260208401935083602082028501610cc98560200190565b5f5b84811015610cfc5783830388528151610ce48482610c95565b93505060208201602098909801979150600101610ccb565b50909695505050505050565b60208082528101610ba58184610ca6565b60a08101610d278288610bac565b8181036020830152610d398187610bd6565b9050610d486040830186610bac565b8181036060830152610d5a8185610bd6565b9050610d696080830184610c17565b9695505050505050565b610b6a81610c07565b8035610b8281610d73565b5f60208284031215610d9a57610d9a5f80fd5b610ba58383610d7c565b5f8060408385031215610db857610db85f80fd5b610dc28484610d7c565b9150610dd18460208501610b77565b90509250929050565b60208101610b828284610bac565b60208101610b828284610c17565b801515610bae565b60208101610b828284610df6565b634e487b7160e01b5f52604160045260245ffd5b601f19601f830116810181811067ffffffffffffffff82111715610e4657610e46610e0c565b6040525050565b5f610e5760405190565b9050610e638282610e20565b919050565b5f67ffffffffffffffff821115610e8157610e81610e0c565b601f19601f83011660200192915050565b82818337505f910152565b5f610eaf610eaa84610e68565b610e4d565b9050828152838383011115610ec557610ec55f80fd5b610ba5836020830184610e92565b5f82601f830112610ee557610ee55f80fd5b610ba583833560208501610e9d565b5f805f60608486031215610f0957610f095f80fd5b833567ffffffffffffffff811115610f2257610f225f80fd5b610f2e86828701610ed3565b935050610f3e8560208601610b77565b9150604084013567ffffffffffffffff811115610f5c57610f5c5f80fd5b610f6886828701610ed3565b9150509250925092565b610f7c8282610bac565b5060200190565b5f610f8c825190565b80845260209384019383015f5b82811015610fbe578151610fad8782610f72565b965050602082019150600101610f99565b5093949350505050565b60208082528101610ba58184610f83565b634e487b7160e01b5f52601160045260245ffd5b81810381811115610b8257610b82610fd9565b634e487b7160e01b5f52603260045260245ffd5b634e487b7160e01b5f52602260045260245ffd5b60028104600182168061103c57607f821691505b60208210810361104e5761104e611014565b50919050565b60158152602081017f4d657472696320646f6573206e6f74206578697374000000000000000000000081529050610ca0565b60208082528101610b8281611054565b600e8152602081017f4e6f7420617574686f72697a656400000000000000000000000000000000000081529050610ca0565b60208082528101610b8281611096565b60138152602081017f43616e6e6f74207265766f6b65206f776e65720000000000000000000000000081529050610ca0565b60208082528101610b82816110d8565b60208082527f4e6f7420617574686f72697a656420746f207265636f7264206d6574726963739101908152610ca0565b60208082528101610b828161111a565b5f610b826111658381565b90565b6111718361115a565b81545f1960089490940293841b1916921b91909117905550565b5f611197818484611168565b505050565b818110156111b6576111ae5f8261118b565b60010161119c565b5050565b601f821115611197575f818152602090206020601f850104810160208510156111e05750805b6111f26020601f86010483018261119c565b5050505050565b815167ffffffffffffffff81111561121357611213610e0c565b61121d8254611028565b6112288282856111ba565b506020601f82116001811461125b575f83156112445750848201515b5f19600885021c19811660028502178555506111f2565b5f84815260208120601f198516915b8281101561128a578785015182556020948501946001909201910161126a565b50848210156112a657838701515f19601f87166008021c191681555b50505050600202600101905550565b606080825281016112c68186610bd6565b90506112d56020830185610bac565b6112e26040830184610bac565b949350505050565b80820180821115610b8257610b82610fd9565b634e487b7160e01b5f52601260045260245ffd5b5f8261131f5761131f6112fd565b50049056fea2646970667358221220a53abbbcff9e7e8497cc2150b53bc948c3db117b0d8047c6a4138547638a3e8664736f6c63430008180033",
  "linkReferences": {},
  "deployedLinkReferences": {}
}